:100000000C9462000C948A000C948A000C948A0070
:100010000C948A000C948A000C948A000C948A0038
:100020000C948A000C948A000C948A000C948A0028
:100030000C948A000C948A000C948A000C948A0018
:100040000C947F030C948A000C944D030C942703AA
:100050000C948A000C948A000C948A000C948A00F8
:100060000C948A000C948A000000000024002700F1
:100070002A0000000000250028002B0000000000DE
:1000800023002600290004040404040404040202DA
:100090000202020203030303030301020408102007
:1000A0004080010204081020010204081020000012
:1000B0000008000201000003040700000000000027
:1000C00000004D0511241FBECFEFD8E0DEBFCDBF2D
:1000D00011E0A0E0B1E0E8E4FBE002C005900D9281
:1000E000AC32B107D9F721E0ACE2B1E001C01D921A
:1000F000A23DB207E1F710E0C2E6D0E004C02197CC
:10010000FE010E949C05C136D107C9F70E94C903B0
:100110000C94A2050C940000AF92BF92CF92DF9294
:10012000EF92FF920F931F93CF93DF936C017B01AC
:100130008B01040F151FEB015E01AE18BF08C0173D
:10014000D10759F06991D601ED91FC910190F081B0
:10015000E02DC6010995892B79F7C501DF91CF9173
:100160001F910F91FF90EF90DF90CF90BF90AF90D5
:100170000895FC01538D448D252F30E0842F90E0AD
:10018000821B930B541710F0CF9608950197089592
:10019000FC01918D828D981761F0A28DAE0FBF2F5B
:1001A000B11D5D968C91928D9F5F9F73928F90E0B1
:1001B00008958FEF9FEF0895FC01918D828D981720
:1001C00031F0828DE80FF11D858D90E008958FEF5D
:1001D0009FEF0895FC01918D228D892F90E0805C26
:1001E0009F4F821B91098F739927089585E391E0B2
:1001F0000E94EA0021E0892B09F420E0822F089573
:1002000080E090E0892B29F00E94F60081110C9487
:1002100000000895FC01A48DA80FB92FB11DA35AA9
:10022000BF4F2C91848D90E001968F739927848F16
:10023000A689B7892C93A089B1898C918370806439
:100240008C93938D848D981306C00288F389E02DDA
:1002500080818F7D80830895EF92FF920F931F938B
:10026000CF93DF93EC0181E0888F9B8D8C8D981369
:100270001AC0E889F989808185FF15C09FB7F89475
:10028000EE89FF896083E889F989808183708064C1
:1002900080839FBF81E090E0DF91CF911F910F910C
:1002A000FF90EF900895F62E0B8D10E00F5F1F4F1B
:1002B0000F731127E02E8C8D8E110CC00FB607FC2A
:1002C000FACFE889F989808185FFF5CFCE010E94B8
:1002D0000A01F1CFEB8DEC0FFD2FF11DE35AFF4F1B
:1002E000F0829FB7F8940B8FEA89FB898081806246
:1002F000CFCFCF93DF93EC01888D8823B9F0AA8903
:10030000BB89E889F9898C9185FD03C0808186FDD0
:100310000DC00FB607FCF7CF8C9185FFF2CF80811F
:1003200085FFEDCFCE010E940A01E9CFDF91CF9189
:100330000895833081F028F4813099F08230A9F05B
:1003400008958730A9F08830C9F08430B1F48091E5
:1003500080008F7D03C0809180008F778093800024
:10036000089584B58F7784BD089584B58F7DFBCFC4
:100370008091B0008F778093B00008958091B00095
:100380008F7DF9CFCF93DF93282F30E0F901E2552D
:10039000FF4F8491F901E656FF4FD491F901EA57D6
:1003A000FF4FC491CC23A1F081110E949901EC2F41
:1003B000F0E0EE0FFF1FE458FF4FA591B491EC91D0
:1003C000ED2381E090E009F480E0DF91CF91089582
:1003D00080E090E0FACF1F93CF93DF93282F30E097
:1003E000F901E255FF4F8491F901E656FF4FD49190
:1003F000F901EA57FF4FC491CC23A9F0162F8111C0
:100400000E949901EC2FF0E0EE0FFF1FEE58FF4F16
:10041000A591B4918FB7F894EC91111108C0D095C3
:10042000DE23DC938FBFDF91CF911F910895DE2BE8
:10043000F8CFCF93DF9390E0FC01E656FF4F249175
:100440008A579F4FFC0184918823D1F090E0880F58
:10045000991FFC01E859FF4FA591B491FC01EE589A
:10046000FF4FC591D49161110EC09FB7F8948C9144
:10047000E22FE0958E238C932881E223E8839FBFAF
:10048000DF91CF9108958FB7F894EC91E22BEC9324
:100490008FBFF6CF3FB7F894809131019091320130
:1004A000A0913301B091340126B5A89B05C02F3F20
:1004B00019F00196A11DB11D3FBFBA2FA92F982F8A
:1004C0008827BC01CD01620F711D811D911D42E085
:1004D000660F771F881F991F4A95D1F708958F924D
:1004E0009F92AF92BF92CF92DF92EF92FF920E94C3
:1004F0004A024B015C0184E1C82ED12CE12CF12C85
:100500000E944A02681979098A099B09683E73406A
:1005100081059105A8F321E0C21AD108E108F1088C
:1005200088EE880E83E0981EA11CB11CC114D10472
:10053000E104F10429F7FF90EF90DF90CF90BF9096
:10054000AF909F908F900895CF93DF93EC01682F29
:10055000617082E00E94EB01BE0175956795617044
:1005600083E00E94EB01BE017595679575956795CF
:10057000617084E00E94EB01BE0123E075956795F0
:100580002A95E1F785E0DF91CF910C94EB01FC0116
:1005900001900020E9F73197AF01481B590BBC01CE
:1005A00085E391E00C948C000C94C7028F929F928B
:1005B000AF92BF92CF92DF92EF92FF920F931F9371
:1005C000CF93DF93CDB7DEB7A1970FB6F894DEBF18
:1005D0000FBECDBF6C01990FEE08FF0819A28E0166
:1005E0000F5D1F4F9AE0892E912CA12CB12CC701D1
:1005F000B601A50194010E947A05605DF80162933D
:100600008F01FAE0CF16D104E104F104D8F490E0B0
:1006100080E00115110519F0C8010E94C702A196DA
:100620000FB6F894DEBF0FBECDBFDF91CF911F9103
:100630000F91FF90EF90DF90CF90BF90AF909F9081
:100640008F900895C12CD12C7601C394D0CF1F92E6
:100650000F920FB60F9211242F933F934F935F93F6
:100660006F937F938F939F93AF93BF93EF93FF937A
:1006700085E391E00E940A01FF91EF91BF91AF9154
:100680009F918F917F916F915F914F913F912F91AA
:100690000F900FBE0F901F9018951F920F920FB6DC
:1006A0000F9211242F938F939F93EF93FF93E091D9
:1006B0004501F09146018081E0914B01F0914C01A0
:1006C00082FD1BC0908180914E018F5F8F732091BE
:1006D0004F01821741F0E0914E01F0E0EB5CFE4FDC
:1006E000958F80934E01FF91EF919F918F912F9164
:1006F0000F900FBE0F901F9018958081F4CF1F921E
:100700000F920FB60F9211242F933F938F939F93C5
:10071000AF93BF9380912D0190912E01A0912F0155
:10072000B091300130912C0123E0230F2D3758F583
:100730000196A11DB11D20932C0180932D01909352
:100740002E01A0932F01B09330018091310190913F
:100750003201A0913301B09134010196A11DB11D68
:100760008093310190933201A0933301B09334010F
:10077000BF91AF919F918F913F912F910F900FBE9D
:100780000F901F90189526E8230F0296A11DB11D0A
:10079000D2CF789484B5826084BD84B5816084BDF5
:1007A00085B5826085BD85B5816085BD80916E000F
:1007B000816080936E001092810080918100826040
:1007C000809381008091810081608093810080917D
:1007D00080008160809380008091B100846080936C
:1007E000B1008091B00081608093B00080917A0068
:1007F000846080937A0080917A00826080937A008E
:1008000080917A00816080937A0080917A0080687C
:1008100080937A001092C100E0914501F091460169
:1008200082E08083E0914101F09142011082E091E9
:100830004301F09144018FEC808310924D01E091CF
:100840004901F0914A0186E08083E0914701F091EF
:100850004801808180618083E0914701F0914801E7
:10086000808188608083E0914701F0914801808118
:1008700080688083E0914701F091480180818F7DFD
:10088000808361E082E00E94190261E083E00E94BF
:10089000190261E084E00E94190261E085E00E9493
:1008A000190260E08EE00E94190260E08FE00E9471
:1008B000190260E080E10E94190260E081E10E947B
:1008C00019028AE191E00E94C70286E291E00E944B
:1008D000C702D0E0C0E08E01085F1F4FCE010E942A
:1008E000A4020E946F0289E291E00E94D4028EE08D
:1008F0000E94C201019709F4B8C086E191E00E940C
:10090000D402CE010E94D60289E291E00E94D40274
:10091000C8010E94A4020E946F028EE00E94C201E0
:10092000019709F4A5C086E191E00E94D402C801B4
:100930000E94D602CE010E94A4020E946F0289E2A8
:1009400091E00E94D4028FE00E94C201019709F455
:1009500092C086E191E00E94D402CE010E94D602AC
:1009600089E291E00E94D402C8010E94A4020E9480
:100970006F028FE00E94C201019709F47FC086E1F7
:1009800091E00E94D402C8010E94D602CE010E94CA
:10099000A4020E946F0289E291E00E94D40280E1E9
:1009A0000E94C201019709F46CC086E191E00E94A7
:1009B000D402CE010E94D60289E291E00E94D402C4
:1009C000C8010E94A4020E946F0280E10E94C2013D
:1009D000019709F459C086E191E00E94D402C80150
:1009E0000E94D602CE010E94A4020E946F0289E2F8
:1009F00091E00E94D40281E10E94C201019709F4B2
:100A000046C086E191E00E94D402CE010E94D60247
:100A100089E291E00E94D402C8010E94A4020E94CF
:100A20006F0281E10E94C2010197A1F186E191E08C
:100A30000E94D402C8010E94D60289E291E00E947D
:100A4000C70286E291E00E94C7022196C830D10514
:100A500009F041CFC0E0D0E02097F1F30E94F6000A
:100A60008823D1F30E940000F7CF82E191E047CFC5
:100A700082E191E05ACF82E191E06DCF82E191E095
:100A800080CF82E191E093CF82E191E0A6CF82E135
:100A900091E0B9CF82E191E0CBCFE5E3F1E01382C1
:100AA000128288EE93E0A0E0B0E084839583A68371
:100AB000B78384E091E09183808385EC90E0958713
:100AC000848784EC90E09787868780EC90E0918B18
:100AD000808B81EC90E0938B828B82EC90E0958B05
:100AE000848B86EC90E0978B868B118E128E138E02
:100AF000148E0895A1E21A2EAA1BBB1BFD010DC086
:100B0000AA1FBB1FEE1FFF1FA217B307E407F507BD
:100B100020F0A21BB30BE40BF50B661F771F881F99
:100B2000991F1A9469F760957095809590959B012F
:100B3000AC01BD01CF010895EE0FFF1F0590F491A8
:080B4000E02D0994F894FFCFA9
:100B4800000000002C018C00B9007901EA00C800FF
:100B5800DC00583A20004F3A200050696E73207329
:0C0B68006574207570000D0A007C000010
:00000001FF
